{
  "abi": [
    {
      "inputs": [
        {
          "internalType": "address",
          "name": "_parent",
          "type": "address"
        }
      ],
      "stateMutability": "nonpayable",
      "type": "constructor"
    },
    {
      "inputs": [
        {
          "internalType": "address",
          "name": "_child",
          "type": "address"
        }
      ],
      "name": "addChild",
      "outputs": [],
      "stateMutability": "nonpayable",
      "type": "function"
    },
    {
      "inputs": [],
      "name": "freeze",
      "outputs": [],
      "stateMutability": "nonpayable",
      "type": "function"
    },
    {
      "inputs": [
        {
          "internalType": "uint256",
          "name": "_index",
          "type": "uint256"
        }
      ],
      "name": "getChild",
      "outputs": [
        {
          "internalType": "address",
          "name": "",
          "type": "address"
        }
      ],
      "stateMutability": "view",
      "type": "function"
    },
    {
      "inputs": [
        {
          "internalType": "uint256",
          "name": "_index",
          "type": "uint256"
        }
      ],
      "name": "removeChild",
      "outputs": [],
      "stateMutability": "nonpayable",
      "type": "function"
    }
  ],
  "bytecode": {
    "object": "0x608060405234801561001057600080fd5b506040516103ec3803806103ec83398101604081905261002f91610054565b600080546001600160a01b0319166001600160a01b0392909216919091179055610084565b60006020828403121561006657600080fd5b81516001600160a01b038116811461007d57600080fd5b9392505050565b610359806100936000396000f3fe608060405234801561001057600080fd5b506004361061004c5760003560e01c80631eee993a1461005157806362a5af3b1461006657806394db438214610078578063c909ea421461008b575b600080fd5b61006461005f366004610287565b6100ba565b005b6100646002805460ff19166001179055565b6100646100863660046102b7565b610154565b61009e6100993660046102b7565b610257565b6040516001600160a01b03909116815260200160405180910390f35b60025460ff16156101035760405162461bcd60e51b815260206004820152600e60248201526d2737b2329034b990333937bd32b760911b60448201526064015b60405180910390fd5b6001805480820182556000919091527fb10e2d527612073b26eecdfd717e6a320cf44b4afac2b0732d9fcbe2b7fa0cf60180546001600160a01b0319166001600160a01b0392909216919091179055565b60025460ff16156101985760405162461bcd60e51b815260206004820152600e60248201526d2737b2329034b990333937bd32b760911b60448201526064016100fa565b600180546000916101a8916102d0565b90508082101561022057600182815481106101c5576101c56102f7565b600091825260209091200154600180546001600160a01b0390921691849081106101f1576101f16102f7565b9060005260206000200160006101000a8154816001600160a01b0302191690836001600160a01b031602179055505b60018054806102315761023161030d565b600082815260209020810160001990810180546001600160a01b03191690550190555050565b60006001828154811061026c5761026c6102f7565b6000918252602090912001546001600160a01b031692915050565b60006020828403121561029957600080fd5b81356001600160a01b03811681146102b057600080fd5b9392505050565b6000602082840312156102c957600080fd5b5035919050565b818103818111156102f157634e487b7160e01b600052601160045260246000fd5b92915050565b634e487b7160e01b600052603260045260246000fd5b634e487b7160e01b600052603160045260246000fdfea26469706673582212204fd135f3a77ae3d87a6372ffdaac2864766353c03b2f4dc8e85b7b9ed43f2c2164736f6c63430008140033",
    "linkReferences": {}
  },
  "methodIdentifiers": {
    "addChild(address)": "1eee993a",
    "freeze()": "62a5af3b",
    "getChild(uint256)": "c909ea42",
    "removeChild(uint256)": "94db4382"
  },
  "id": 0
}