{
  "abi": [
    {
      "inputs": [
        {
          "internalType": "address",
          "name": "_parent",
          "type": "address"
        }
      ],
      "stateMutability": "nonpayable",
      "type": "constructor"
    },
    {
      "inputs": [
        {
          "internalType": "address",
          "name": "_child",
          "type": "address"
        }
      ],
      "name": "addChild",
      "outputs": [],
      "stateMutability": "nonpayable",
      "type": "function"
    },
    {
      "inputs": [],
      "name": "freeze",
      "outputs": [],
      "stateMutability": "nonpayable",
      "type": "function"
    },
    {
      "inputs": [
        {
          "internalType": "uint256",
          "name": "_index",
          "type": "uint256"
        }
      ],
      "name": "getChild",
      "outputs": [
        {
          "internalType": "address",
          "name": "",
          "type": "address"
        }
      ],
      "stateMutability": "view",
      "type": "function"
    },
    {
      "inputs": [],
      "name": "getChildrenCount",
      "outputs": [
        {
          "internalType": "uint256",
          "name": "",
          "type": "uint256"
        }
      ],
      "stateMutability": "view",
      "type": "function"
    },
    {
      "inputs": [
        {
          "internalType": "uint256",
          "name": "_index",
          "type": "uint256"
        }
      ],
      "name": "removeChild",
      "outputs": [],
      "stateMutability": "nonpayable",
      "type": "function"
    }
  ],
  "bytecode": {
    "object": "0x608060405234801561001057600080fd5b5060405161040938038061040983398101604081905261002f91610054565b600080546001600160a01b0319166001600160a01b0392909216919091179055610084565b60006020828403121561006657600080fd5b81516001600160a01b038116811461007d57600080fd5b9392505050565b610376806100936000396000f3fe608060405234801561001057600080fd5b50600436106100575760003560e01c80631eee993a1461005c5780635e6fc8b41461007157806362a5af3b1461008757806394db438214610099578063c909ea42146100ac575b600080fd5b61006f61006a3660046102a4565b6100d7565b005b6001546040519081526020015b60405180910390f35b61006f6002805460ff19166001179055565b61006f6100a73660046102d4565b610171565b6100bf6100ba3660046102d4565b610274565b6040516001600160a01b03909116815260200161007e565b60025460ff16156101205760405162461bcd60e51b815260206004820152600e60248201526d2737b2329034b990333937bd32b760911b60448201526064015b60405180910390fd5b6001805480820182556000919091527fb10e2d527612073b26eecdfd717e6a320cf44b4afac2b0732d9fcbe2b7fa0cf60180546001600160a01b0319166001600160a01b0392909216919091179055565b60025460ff16156101b55760405162461bcd60e51b815260206004820152600e60248201526d2737b2329034b990333937bd32b760911b6044820152606401610117565b600180546000916101c5916102ed565b90508082101561023d57600182815481106101e2576101e2610314565b600091825260209091200154600180546001600160a01b03909216918490811061020e5761020e610314565b9060005260206000200160006101000a8154816001600160a01b0302191690836001600160a01b031602179055505b600180548061024e5761024e61032a565b600082815260209020810160001990810180546001600160a01b03191690550190555050565b60006001828154811061028957610289610314565b6000918252602090912001546001600160a01b031692915050565b6000602082840312156102b657600080fd5b81356001600160a01b03811681146102cd57600080fd5b9392505050565b6000602082840312156102e657600080fd5b5035919050565b8181038181111561030e57634e487b7160e01b600052601160045260246000fd5b92915050565b634e487b7160e01b600052603260045260246000fd5b634e487b7160e01b600052603160045260246000fdfea2646970667358221220a4b3ebe345055cc75ede3ecc1d00066f93571f150ec3a1cbb6c01fa1a845b47f64736f6c63430008140033",
    "linkReferences": {}
  },
  "methodIdentifiers": {
    "addChild(address)": "1eee993a",
    "freeze()": "62a5af3b",
    "getChild(uint256)": "c909ea42",
    "getChildrenCount()": "5e6fc8b4",
    "removeChild(uint256)": "94db4382"
  },
  "id": 0
}